{
  "contractName": "Campaign",
  "abi": [
    {
      "inputs": [
        {
          "internalType": "uint256",
          "name": "minimum",
          "type": "uint256"
        },
        {
          "internalType": "address",
          "name": "creator",
          "type": "address"
        }
      ],
      "stateMutability": "nonpayable",
      "type": "constructor"
    },
    {
      "inputs": [
        {
          "internalType": "address",
          "name": "",
          "type": "address"
        }
      ],
      "name": "approvers",
      "outputs": [
        {
          "internalType": "bool",
          "name": "",
          "type": "bool"
        }
      ],
      "stateMutability": "view",
      "type": "function"
    },
    {
      "inputs": [],
      "name": "approversCount",
      "outputs": [
        {
          "internalType": "uint256",
          "name": "",
          "type": "uint256"
        }
      ],
      "stateMutability": "view",
      "type": "function"
    },
    {
      "inputs": [],
      "name": "manager",
      "outputs": [
        {
          "internalType": "address",
          "name": "",
          "type": "address"
        }
      ],
      "stateMutability": "view",
      "type": "function"
    },
    {
      "inputs": [],
      "name": "minimumContribution",
      "outputs": [
        {
          "internalType": "uint256",
          "name": "",
          "type": "uint256"
        }
      ],
      "stateMutability": "view",
      "type": "function"
    },
    {
      "inputs": [],
      "name": "contribute",
      "outputs": [],
      "stateMutability": "payable",
      "type": "function"
    },
    {
      "inputs": [
        {
          "internalType": "string",
          "name": "description",
          "type": "string"
        },
        {
          "internalType": "uint256",
          "name": "value",
          "type": "uint256"
        },
        {
          "internalType": "address",
          "name": "recipient",
          "type": "address"
        }
      ],
      "name": "createRequest",
      "outputs": [],
      "stateMutability": "nonpayable",
      "type": "function"
    },
    {
      "inputs": [
        {
          "internalType": "uint256",
          "name": "index",
          "type": "uint256"
        }
      ],
      "name": "approveRequest",
      "outputs": [],
      "stateMutability": "nonpayable",
      "type": "function"
    },
    {
      "inputs": [
        {
          "internalType": "uint256",
          "name": "index",
          "type": "uint256"
        }
      ],
      "name": "finalizeRequest",
      "outputs": [],
      "stateMutability": "nonpayable",
      "type": "function"
    },
    {
      "inputs": [],
      "name": "getSummary",
      "outputs": [
        {
          "internalType": "uint256",
          "name": "",
          "type": "uint256"
        },
        {
          "internalType": "uint256",
          "name": "",
          "type": "uint256"
        },
        {
          "internalType": "uint256",
          "name": "",
          "type": "uint256"
        },
        {
          "internalType": "uint256",
          "name": "",
          "type": "uint256"
        },
        {
          "internalType": "address",
          "name": "",
          "type": "address"
        }
      ],
      "stateMutability": "view",
      "type": "function"
    },
    {
      "inputs": [],
      "name": "getRequestsCount",
      "outputs": [
        {
          "internalType": "uint256",
          "name": "",
          "type": "uint256"
        }
      ],
      "stateMutability": "view",
      "type": "function"
    }
  ],
  "bytecode": "0x60806040523480156200001157600080fd5b50604051620014e2380380620014e283398181016040528101906200003791906200012c565b80600260006101000a81548173ffffffffffffffffffffffffffffffffffffffff021916908373ffffffffffffffffffffffffffffffffffffffff16021790555081600381905550505062000173565b600080fd5b6000819050919050565b620000a1816200008c565b8114620000ad57600080fd5b50565b600081519050620000c18162000096565b92915050565b600073ffffffffffffffffffffffffffffffffffffffff82169050919050565b6000620000f482620000c7565b9050919050565b6200010681620000e7565b81146200011257600080fd5b50565b6000815190506200012681620000fb565b92915050565b6000806040838503121562000146576200014562000087565b5b60006200015685828601620000b0565b9250506020620001698582860162000115565b9150509250929050565b61135f80620001836000396000f3fe6080604052600436106100915760003560e01c806382fde0931161005957806382fde093146101815780638a9cfd55146101ac578063937e09b1146101d5578063d7bb99ba14610200578063d7d1bbdb1461020a57610091565b806303441006146100965780630a144391146100bf5780633410452a146100fc5780634051ddac14610127578063481c6a7514610156575b600080fd5b3480156100a257600080fd5b506100bd60048036038101906100b891906108a2565b610233565b005b3480156100cb57600080fd5b506100e660048036038101906100e1919061092d565b610410565b6040516100f39190610975565b60405180910390f35b34801561010857600080fd5b50610111610430565b60405161011e919061099f565b60405180910390f35b34801561013357600080fd5b5061013c610439565b60405161014d9594939291906109c9565b60405180910390f35b34801561016257600080fd5b5061016b61047f565b6040516101789190610a1c565b60405180910390f35b34801561018d57600080fd5b506101966104a5565b6040516101a3919061099f565b60405180910390f35b3480156101b857600080fd5b506101d360048036038101906101ce9190610b7d565b6104ab565b005b3480156101e157600080fd5b506101ea6105f2565b6040516101f7919061099f565b60405180910390f35b6102086105f8565b005b34801561021657600080fd5b50610231600480360381019061022c91906108a2565b6106ae565b005b600260009054906101000a900473ffffffffffffffffffffffffffffffffffffffff1673ffffffffffffffffffffffffffffffffffffffff163373ffffffffffffffffffffffffffffffffffffffff16146102c3576040517f08c379a00000000000000000000000000000000000000000000000000000000081526004016102ba90610c6f565b60405180910390fd5b600060016000838152602001908152602001600020905060026005546102e99190610ced565b81600301541161032e576040517f08c379a000000000000000000000000000000000000000000000000000000000815260040161032590610d90565b60405180910390fd5b8060020160149054906101000a900460ff1615610380576040517f08c379a000000000000000000000000000000000000000000000000000000000815260040161037790610e22565b60405180910390fd5b8060020160009054906101000a900473ffffffffffffffffffffffffffffffffffffffff1673ffffffffffffffffffffffffffffffffffffffff166108fc82600101549081150290604051600060405180830381858888f193505050501580156103ee573d6000803e3d6000fd5b5060018160020160146101000a81548160ff0219169083151502179055505050565b60046020528060005260406000206000915054906101000a900460ff1681565b60008054905090565b600080600080600060035447600054600554600260009054906101000a900473ffffffffffffffffffffffffffffffffffffffff16945094509450945094509091929394565b600260009054906101000a900473ffffffffffffffffffffffffffffffffffffffff1681565b60055481565b600260009054906101000a900473ffffffffffffffffffffffffffffffffffffffff1673ffffffffffffffffffffffffffffffffffffffff163373ffffffffffffffffffffffffffffffffffffffff161461053b576040517f08c379a000000000000000000000000000000000000000000000000000000000815260040161053290610c6f565b60405180910390fd5b60006001600080600081548092919061055390610e42565b91905055815260200190815260200160002090508381600001908161057891906110a1565b50828160010181905550818160020160006101000a81548173ffffffffffffffffffffffffffffffffffffffff021916908373ffffffffffffffffffffffffffffffffffffffff16021790555060008160020160146101000a81548160ff0219169083151502179055506000816003018190555050505050565b60035481565b600354341161063c576040517f08c379a0000000000000000000000000000000000000000000000000000000008152600401610633906111e5565b60405180910390fd5b6001600460003373ffffffffffffffffffffffffffffffffffffffff1673ffffffffffffffffffffffffffffffffffffffff16815260200190815260200160002060006101000a81548160ff021916908315150217905550600560008154809291906106a790610e42565b9190505550565b6000600160008381526020019081526020016000209050600460003373ffffffffffffffffffffffffffffffffffffffff1673ffffffffffffffffffffffffffffffffffffffff16815260200190815260200160002060009054906101000a900460ff16610751576040517f08c379a000000000000000000000000000000000000000000000000000000000815260040161074890611277565b60405180910390fd5b8060040160003373ffffffffffffffffffffffffffffffffffffffff1673ffffffffffffffffffffffffffffffffffffffff16815260200190815260200160002060009054906101000a900460ff16156107e0576040517f08c379a00000000000000000000000000000000000000000000000000000000081526004016107d790611309565b60405180910390fd5b60018160040160003373ffffffffffffffffffffffffffffffffffffffff1673ffffffffffffffffffffffffffffffffffffffff16815260200190815260200160002060006101000a81548160ff02191690831515021790555080600301600081548092919061084f90610e42565b91905055505050565b6000604051905090565b600080fd5b600080fd5b6000819050919050565b61087f8161086c565b811461088a57600080fd5b50565b60008135905061089c81610876565b92915050565b6000602082840312156108b8576108b7610862565b5b60006108c68482850161088d565b91505092915050565b600073ffffffffffffffffffffffffffffffffffffffff82169050919050565b60006108fa826108cf565b9050919050565b61090a816108ef565b811461091557600080fd5b50565b60008135905061092781610901565b92915050565b60006020828403121561094357610942610862565b5b600061095184828501610918565b91505092915050565b60008115159050919050565b61096f8161095a565b82525050565b600060208201905061098a6000830184610966565b92915050565b6109998161086c565b82525050565b60006020820190506109b46000830184610990565b92915050565b6109c3816108ef565b82525050565b600060a0820190506109de6000830188610990565b6109eb6020830187610990565b6109f86040830186610990565b610a056060830185610990565b610a1260808301846109ba565b9695505050505050565b6000602082019050610a3160008301846109ba565b92915050565b600080fd5b600080fd5b6000601f19601f8301169050919050565b7f4e487b7100000000000000000000000000000000000000000000000000000000600052604160045260246000fd5b610a8a82610a41565b810181811067ffffffffffffffff82111715610aa957610aa8610a52565b5b80604052505050565b6000610abc610858565b9050610ac88282610a81565b919050565b600067ffffffffffffffff821115610ae857610ae7610a52565b5b610af182610a41565b9050602081019050919050565b82818337600083830152505050565b6000610b20610b1b84610acd565b610ab2565b905082815260208101848484011115610b3c57610b3b610a3c565b5b610b47848285610afe565b509392505050565b600082601f830112610b6457610b63610a37565b5b8135610b74848260208601610b0d565b91505092915050565b600080600060608486031215610b9657610b95610862565b5b600084013567ffffffffffffffff811115610bb457610bb3610867565b5b610bc086828701610b4f565b9350506020610bd18682870161088d565b9250506040610be286828701610918565b9150509250925092565b600082825260208201905092915050565b7f4f6e6c7920746865206d616e616765722063616e2063616c6c2074686973206660008201527f756e6374696f6e2e000000000000000000000000000000000000000000000000602082015250565b6000610c59602883610bec565b9150610c6482610bfd565b604082019050919050565b60006020820190508181036000830152610c8881610c4c565b9050919050565b7f4e487b7100000000000000000000000000000000000000000000000000000000600052601260045260246000fd5b7f4e487b7100000000000000000000000000000000000000000000000000000000600052601160045260246000fd5b6000610cf88261086c565b9150610d038361086c565b925082610d1357610d12610c8f565b5b828204905092915050565b7f4e6f7420656e6f75676820617070726f76616c7320746f2066696e616c697a6560008201527f20726571756573742e0000000000000000000000000000000000000000000000602082015250565b6000610d7a602983610bec565b9150610d8582610d1e565b604082019050919050565b60006020820190508181036000830152610da981610d6d565b9050919050565b7f526571756573742068617320616c7265616479206265656e20636f6d706c657460008201527f65642e0000000000000000000000000000000000000000000000000000000000602082015250565b6000610e0c602383610bec565b9150610e1782610db0565b604082019050919050565b60006020820190508181036000830152610e3b81610dff565b9050919050565b6000610e4d8261086c565b91507fffffffffffffffffffffffffffffffffffffffffffffffffffffffffffffffff8203610e7f57610e7e610cbe565b5b600182019050919050565b600081519050919050565b7f4e487b7100000000000000000000000000000000000000000000000000000000600052602260045260246000fd5b60006002820490506001821680610edc57607f821691505b602082108103610eef57610eee610e95565b5b50919050565b60008190508160005260206000209050919050565b60006020601f8301049050919050565b600082821b905092915050565b600060088302610f577fffffffffffffffffffffffffffffffffffffffffffffffffffffffffffffffff82610f1a565b610f618683610f1a565b95508019841693508086168417925050509392505050565b6000819050919050565b6000610f9e610f99610f948461086c565b610f79565b61086c565b9050919050565b6000819050919050565b610fb883610f83565b610fcc610fc482610fa5565b848454610f27565b825550505050565b600090565b610fe1610fd4565b610fec818484610faf565b505050565b5b8181101561101057611005600082610fd9565b600181019050610ff2565b5050565b601f8211156110555761102681610ef5565b61102f84610f0a565b8101602085101561103e578190505b61105261104a85610f0a565b830182610ff1565b50505b505050565b600082821c905092915050565b60006110786000198460080261105a565b1980831691505092915050565b60006110918383611067565b9150826002028217905092915050565b6110aa82610e8a565b67ffffffffffffffff8111156110c3576110c2610a52565b5b6110cd8254610ec4565b6110d8828285611014565b600060209050601f83116001811461110b57600084156110f9578287015190505b6111038582611085565b86555061116b565b601f19841661111986610ef5565b60005b828110156111415784890151825560018201915060208501945060208101905061111c565b8683101561115e578489015161115a601f891682611067565b8355505b6001600288020188555050505b505050505050565b7f416d6f756e742073656e742069732062656c6f7720746865206d696e696d756d60008201527f20636f6e747269627574696f6e2072657175697265642e000000000000000000602082015250565b60006111cf603783610bec565b91506111da82611173565b604082019050919050565b600060208201905081810360008301526111fe816111c2565b9050919050565b7f4f6e6c7920636f6e7472696275746f72732063616e20617070726f766520726560008201527f7175657374732e00000000000000000000000000000000000000000000000000602082015250565b6000611261602783610bec565b915061126c82611205565b604082019050919050565b6000602082019050818103600083015261129081611254565b9050919050565b7f436f6e7472696275746f722068617320616c726561647920617070726f76656460008201527f207468697320726571756573742e000000000000000000000000000000000000602082015250565b60006112f3602e83610bec565b91506112fe82611297565b604082019050919050565b60006020820190508181036000830152611322816112e6565b905091905056fea26469706673582212204f7abbf1cac01a1d8901c8a5cb792b22a1c77f2118b8d5af1df6e72219a99a1564736f6c63430008130033",
  "immutableReferences": {},
  "source": "/// SPDX-License-Identifier: MIT\r\n\r\npragma solidity ^0.8.0;\r\n\r\ncontract CampaignFactory {\r\n    address[] public deployedCampaigns;\r\n\r\n    function createCampaign(uint minimum) public {\r\n        address newCampaign = address(new Campaign(minimum, msg.sender));\r\n        deployedCampaigns.push(newCampaign);\r\n    }\r\n\r\n    function getDeployedCampaigns() public view returns (address[] memory) {\r\n        return deployedCampaigns;\r\n    }\r\n}\r\n\r\ncontract Campaign {\r\n    struct Request {\r\n        string description;\r\n        uint256 value;\r\n        address payable recipient;\r\n        bool complete;\r\n        uint256 approvalCount;\r\n        mapping(address => bool) approvals;\r\n    }\r\n\r\n    uint numRequests;\r\n    mapping (uint => Request) requests;\r\n    address public manager;\r\n    uint256 public minimumContribution;\r\n    mapping(address => bool) public approvers;\r\n    uint256 public approversCount;\r\n\r\n    modifier restricted() {\r\n        require(msg.sender == manager, \"Only the manager can call this function.\");\r\n        _;\r\n    }\r\n\r\n    constructor(uint256 minimum, address creator) {\r\n        manager = creator;\r\n        minimumContribution = minimum;\r\n    }\r\n\r\n    function contribute() public payable {\r\n        require(msg.value > minimumContribution, \"Amount sent is below the minimum contribution required.\");\r\n\r\n        approvers[msg.sender] = true;\r\n        approversCount++;\r\n    }\r\n\r\n    function createRequest(string memory description, uint value, address recipient) public restricted {            \r\n        Request storage r = requests[numRequests++];\r\n        r.description = description;\r\n        r.value = value;\r\n        r.recipient = payable(recipient);\r\n        r.complete = false;\r\n        r.approvalCount = 0;\r\n    }\r\n    function approveRequest(uint256 index) public {\r\n        Request storage request = requests[index];\r\n\r\n        require(approvers[msg.sender], \"Only contributors can approve requests.\");\r\n        require(!request.approvals[msg.sender], \"Contributor has already approved this request.\");\r\n\r\n        request.approvals[msg.sender] = true;\r\n        request.approvalCount++;\r\n    }\r\n\r\n    function finalizeRequest(uint256 index) public restricted {\r\n        Request storage request = requests[index];\r\n\r\n        require(request.approvalCount > (approversCount / 2), \"Not enough approvals to finalize request.\");\r\n        require(!request.complete, \"Request has already been completed.\");\r\n\r\n        request.recipient.transfer(request.value);\r\n        request.complete = true;\r\n    }\r\n\r\n    function getSummary() public view returns (\r\n        uint256, uint256, uint256, uint256, address\r\n    ) {\r\n        return (\r\n            minimumContribution,\r\n            address(this).balance,\r\n            numRequests,\r\n            approversCount,\r\n            manager\r\n        );\r\n    }\r\n\r\n    function getRequestsCount() public view returns (uint256) {\r\n        return  numRequests;\r\n    }\r\n}",
  "sourcePath": "D:\\cryptofunding\\contracts\\Campaign.sol",
  "compiler": {
    "name": "solc",
    "version": "0.8.19+commit.7dd6d404.Emscripten.clang"
  },
  "schemaVersion": "3.4.13",
  "updatedAt": "2023-04-24T15:01:02.119Z",
  "devdoc": {
    "kind": "dev",
    "methods": {},
    "version": 1
  },
  "userdoc": {
    "kind": "user",
    "methods": {},
    "version": 1
  }
}